:100000000C9434000C948A020C947B020C946C02C5
:100010000C9451000C9451000C9451000C9451001C
:100020000C9451000C9451000C9451000C9451000C
:100030000C9451000C9451000C9451000C945100FC
:100040000C9412070C9451000C9451000C94510024
:100050000C9451000C9451000C9451000C945100DC
:100060000C9451000C94510011241FBECFEFD8E026
:10007000DEBFCDBF11E0A0E0B1E0E6ECFBE102C0E5
:1000800005900D92A031B107D9F721E0A0E1B1E0D0
:1000900001C01D92AD35B207E1F70E9456090C94DC
:1000A000E10D0C9400000895E9E6F0E080818F6096
:1000B00080838DB383608DBB8FB780688FBFE8E688
:1000C000F0E0808181608083EBE6F0E080818160F8
:1000D000808308958430C0F58230B1F0833031F1EF
:1000E000813091F5663080F581E090E001C0880FA5
:1000F0006A95EAF794B14130510519F4892B84B916
:10010000089580958923FBCF6730F0F481E090E07B
:1001100001C0880F6A95EAF797B14130510519F48B
:10012000892B87B9089580958923FBCF683060F4C7
:1001300081E090E001C0880F6A95EAF79AB14130FA
:10014000510519F4892B8AB9089580958923FBCF2D
:100150008430A8F58230A9F0833021F1813079F51F
:10016000663068F581E090E001C0880F6A95EAF793
:1001700095B1413019F4892B85B90895809589236B
:10018000FBCF6730E0F481E090E001C0880F6A9512
:10019000EAF798B1413019F4892B88B90895809510
:1001A0008923FBCF683058F481E090E001C0880FCC
:1001B0006A95EAF79BB1413019F4892B8BB9089500
:1001C00080958923FBCF8430C8F4823079F0833066
:1001D00089F0813099F4663088F485B121E030E00F
:1001E00001C0220F6A95EAF782230895673030F440
:1001F00088B1F4CF683010F48BB1F0CF80E008956F
:10020000843008F04FC08230F9F08330B1F1813092
:1002100009F048C0663008F045C025B181E090E0A3
:1002200002C0880F991F6A95E2F7022E000C330B6B
:100230002823392395B12130310519F0892B85B94F
:10024000089580958923FBCF673060F528B181E060
:1002500090E002C0880F991F6A95E2F7022E000C09
:10026000330B2823392398B12130310519F0892B1C
:1002700088B9089580958923FBCF683098F42BB115
:1002800081E090E002C0880F991F6A95E2F7022E84
:10029000000C330B282339239BB12130310519F091
:1002A000892B8BB9089580958923FBCF843058F42E
:1002B000823031F0833031F0813029F464B908950F
:1002C00067B908956AB90895843058F4823031F0DE
:1002D000833031F0813029F465B9089568B9089503
:1002E0006BB90895843060F4823031F0833031F09E
:1002F000813031F483B1089586B1089589B10895AC
:1003000080E008958430C0F4823091F0833091F021
:10031000813091F424B181E090E002C0880F991FF0
:100320006A95E2F7022E000C330B82239323089583
:1003300027B1F1CF2AB1EFCF90E080E00895CF93BD
:10034000DF93C82FD62F41E050E00E946A0040E0C2
:100350006D2F8C2FDF91CF910C94A8001F93CF931A
:10036000DF93182FC62FD42FD60FCD1304C0DF91E3
:10037000CF911F91089541E050E06C2F812F0E9492
:100380006A0040E06C2F812F0E94A800CF5FEDCF64
:10039000CF93DF93C82FD62F0E948201892B69F05B
:1003A0006D2F8C2F0E94E300813039F041E06D2FDA
:1003B0008C2FDF91CF910C94A800DF91CF910895FD
:1003C000CF93DF93C82FD62F0E948201892B69F02B
:1003D0006D2F8C2F0E94E300882339F040E06D2FB1
:1003E0008C2FDF91CF910C94A800DF91CF910895CD
:1003F0001F93CF93DF93182FC62FD42FD60FCD1373
:1004000004C0DF91CF911F9108956C2F812F0E941E
:100410008201892B59F06C2F812F0E94E3008823E1
:1004200029F040E06C2F812F0E94A800CF5FE7CF1A
:10043000CF93DF93C82FD62F0E948201892B31F0F2
:100440006D2F8C2FDF91CF910C940001DF91CF9114
:100450000895EF92FF920F931F93CF93DF93C82FCE
:10046000D62FE42E0E948201892B59F161E06D0F95
:100470008C2F0E948201892B21F162E06D0F8C2F5D
:100480000E948201892BE9F063E06D0F8C2F0E949E
:100490008201892BB1F010E000E0F12C6D2F600F8C
:1004A000C701002E02C0959587950A94E2F780FF58
:1004B0000FC08C2F0E94C8010F5F1F4F0430110521
:1004C00069F7DF91CF911F910F91FF90EF90089501
:1004D0008C2F0E94E001F0CF1F920F920FB60F9267
:1004E00011248F9381E0809315018F910F900FBE9F
:1004F0000F901F9018951F920F920FB60F92112414
:100500008F9381E0809316018F910F900FBE0F9013
:100510001F9018951F920F920FB60F921124AF9251
:10052000BF92CF92DF92EF92FF920F931F932F9380
:100530003F934F935F936F937F938F939F93AF936B
:10054000BF93CF93DF93EF93FF930E940C0660E07D
:1005500070E0CB010E94050960E070E0CB010E94D1
:10056000120987E60E9443090E944A098337E1F78E
:100570000E944A0990E090932B0180932A012091D8
:100580001A0130911B0140911C0150911D01609195
:100590001E0170911F018091200190912101EAE0DC
:1005A000AE2EB12CC12CD12CE12CF12C00E010E0AE
:1005B0000E944C0A20931A0130931B0140931C01A6
:1005C00050931D0160931E0170931F0180932001C1
:1005D000909321010E944A0990E090932901809311
:1005E000280120911A0130911B0140911C0150916A
:1005F0001D0160911E0170911F0180912001909159
:1006000021010E944C0A20931A0130931B01409350
:100610001C0150931D0160931E0170931F01809374
:100620002001909321010E944A0990E090932701B4
:100630008093260120911A0130911B0140911C01E9
:1006400050911D0160911E0170911F018091200148
:10065000909121010E944C0A20931A0130931B01B2
:1006600040931C0150931D0160931E0170931F0164
:1006700080932001909321010E944A0990E0909379
:1006800025018093240120911A0130911B01409192
:100690001C0150911D0160911E0170911F018091FC
:1006A0002001909121010E944C0A20931A0130935D
:1006B0001B0140931C0150931D0160931E01709318
:1006C0001F0180932001909321010E944A0990E02C
:1006D0009093230180932201609122017091230164
:1006E000E0912601F0912701A0912401B09125010C
:1006F00020912A0130912B0140912801509129012C
:10070000A0901A01B0901B01C0901C01D0901D0157
:10071000E0901E01F0901F01009120011091210135
:10072000C4E6CE9FC001CF9F900D1124CAE0CA9F9E
:10073000F001CB9FF00D11248E0F9F1F860F971F86
:10074000E0E1F7E22E9FB0012F9F700D3E9F700DEC
:100750001124860F971F28EE33E0429FB001439F7C
:10076000700D529F700D1124860F971F9C0140E061
:1007700050E060E070E080E090E00E947B0B20930E
:100780001A0130931B0140931C0150931D0160938B
:100790001E0170931F0180932001909321012091ED
:1007A0001A0130911B0140911C0150911D01609173
:1007B0001E0170911F018091200190912101F4EBA5
:1007C000AF2EB12CC12CD12CE12CF12C00E010E08B
:1007D0000E94D50AA5E0AA2E0E94D70A0E94E50C25
:1007E000609311017093120180931301909314018F
:1007F00081E08093170110921901FF91EF91DF9131
:10080000CF91BF91AF919F918F917F916F915F91A8
:100810004F913F912F911F910F91FF90EF90DF909B
:10082000CF90BF90AF900F900FBE0F901F90189574
:10083000CF93DF93C82FD62F50E040E00E946A008C
:1008400041E06D2F8C2FDF91CF910C94A8000C9478
:10085000E30080932C0141E050E064E083E00E94DB
:100860006A0041E050E065E083E00E946A0041E0F8
:1008700050E066E083E00E946A0041E050E067E0FB
:1008800083E00E946A0041E050E065E081E00E9460
:100890006A0041E050E063E081E00E946A0041E0CC
:1008A00050E064E081E00C946A0020912C01211159
:1008B000D9C08A30910508F0AEC1FC01EE59FB4F5A
:1008C0000C94460A6C048F04AA04CA04E004F604DB
:1008D0000705220524052B0541E064E083E00E9422
:1008E000A80041E065E083E00E94A80041E066E0E6
:1008F00083E00E94A80041E067E083E00E94A80036
:1009000041E065E081E00E94A80041E063E081E011
:100910000E94A80040E064E081E00C94A80040E060
:1009200064E083E00E94A80041E065E083E00E946B
:10093000A80041E066E083E00E94A80040E067E094
:1009400083E00E94A80040E065E081E00E94A800EA
:1009500040E0DCCF41E064E083E00E94A80041E099
:1009600065E083E00E94A80040E066E083E00E942A
:10097000A80041E067E083E00E94A80041E065E054
:1009800081E00E94A80040E063E081E00E94A800AE
:1009900041E0C1CF41E064E083E00E94A80041E073
:1009A00065E083E00E94A80041E066E083E00E94E9
:1009B000A80041E067E083E00E94A80040E0DFCFAC
:1009C00040E064E083E00E94A80041E065E083E04D
:1009D0000E94A80041E066E083E00E94A80040E099
:1009E00067E083E00E94A80040E026C041E064E0A8
:1009F00083E00E94A80040E065E083E00E94A80038
:100A000041E066E083E00E94A80041E0E9CF41E0D8
:100A100064E083E00E94A80040E065E083E00E947B
:100A2000A80041E066E083E00E94A80041E067E0A2
:100A300083E00E94A80041E065E081E00E94A800F8
:100A400041E0A2CF41E06CCF41E064E083E00E944E
:100A5000A80041E0E2CF41E064E083E00E94A8000A
:100A600041E0CACF213009F0D6C08A30910508F0A4
:100A7000D2C0FC01E25CFA4F0C94460A48056805B6
:100A80008305A305B905CF05E005FB05FD050406B3
:100A90004EEF64E083E00E94A8004EEF65E083E043
:100AA0000E94A8004EEF66E083E00E94A8004EEF8F
:100AB00067E083E00E94A8004EEF65E081E00E94BD
:100AC000A8004EEF63E081E00E94A8004FEF23CF23
:100AD0004FEF64E083E00E94A8004EEF65E083E002
:100AE0000E94A8004EEF66E083E00E94A8004FEF4E
:100AF00067E083E00E94A8004FEF65E081E00E947C
:100B0000A8004FEFDFCF4EEF64E083E00E94A80023
:100B10004EEF65E083E00E94A8004FEF66E083E0BF
:100B20000E94A8004EEF67E083E00E94A8004EEF0D
:100B300065E081E00E94A8004FEF63E081E00E9441
:100B4000A8004EEFE8CE4EEF64E083E00E94A800DC
:100B50004EEF65E083E00E94A8004EEF66E083E080
:100B60000E94A8004EEF67E083E00E94A8004FEFCC
:100B7000DFCF4FEF64E083E00E94A8004EEF65E016
:100B800083E00E94A8004EEF66E083E00E94A80088
:100B90004FEF67E083E00E94A8004FEF26C04EEFC2
:100BA00064E083E00E94A8004FEF65E083E00E94CC
:100BB000A8004EEF66E083E00E94A8004EEFE9CF68
:100BC0004EEF64E083E00E94A8004FEF65E083E011
:100BD0000E94A8004EEF66E083E00E94A8004EEF5E
:100BE00067E083E00E94A8004EEF65E081E00E948C
:100BF000A8004EEFA2CF4EEF6CCF4EEF64E083E043
:100C00000E94A8004EEFE2CF4EEF64E083E00E9426
:100C1000A8004EEFCACF089540E064E083E00E9450
:100C2000A80040E065E083E00E94A80040E066E0A4
:100C300083E00E94A80040E067E083E00E94A800F3
:100C400040E065E081E00E94A80040E063E081E0D0
:100C50000E94A80040E064E081E00C94A800FC0140
:100C6000808191818130910509F446C0D8F18230AC
:100C7000910509F447C0039709F44CC08281938120
:100C80008230910509F470C008F057C0009709F44C
:100C90005EC0019709F465C084819581813091051A
:100CA00009F488C008F472C08230910509F482C04A
:100CB000039709F492C086819781009709F49AC03E
:100CC000019709F4A1C0808586BD828587BD828594
:100CD00088BD10922D0110922E0110922F011092BA
:100CE0003001089584B58E7F84BD84B58D7F84BD29
:100CF00085B5877F85BDC2CF84B58E7F84BD84B521
:100D00008260F5CF84859585892B09F0B7CF84B5AE
:100D10008160EACF84859585009761F0019709F09D
:100D2000ADCF84B5816084BD84B5826084BD85B556
:100D30008860E0CF84B58160E1CF84309105E9F02F
:100D4000C8F0059709F0A8CF85B5816018C085B5B2
:100D50008E7F85BD85B58D7F85BD85B58B7F85BD36
:100D60009BCF85B58160F5CF85B58E7F85BD85B577
:100D70008260F2CF85B58160F9CF85B58E7F85BD64
:100D800085B58D7F85BD85B58460E9CF86859785DE
:100D9000009749F0019709F08ECF84B58F7D84BD0F
:100DA00084B58F7E05C084B58F7784BD84B58F7B75
:100DB00084BD81CF86859785009749F0019709F01A
:100DC0007ACF84B58F7D84BD84B58061F1CF84B541
:100DD0008F7784BD84B58064EBCF86859785009737
:100DE00031F0019709F067CF84B58062ECCF84B50C
:100DF0008068EFCF80916E008E7F80936E00A89AFE
:100E00008FB78F778FBF5FCF80916E0081608093A7
:100E10006E00A89A8FB78068F5CF089516BC17BCEE
:100E200018BC08951F920F920FB60F9211242F93A2
:100E30003F934F935F936F937F938F939F93AF9362
:100E4000BF93CF93DF93EF93FF9380912D01909108
:100E50002E01A0912F01B09130010196A11DB11D6D
:100E600080932D0190932E01A0932F01B093300118
:100E7000A89AC5E3D1E060912D0170912E01809177
:100E80002F01909130012E813F81488559850E9424
:100E9000240A672B682B692B29F4E881F9813097A4
:100EA00009F009952A9681E0CD35D80721F7FF9101
:100EB000EF91DF91CF91BF91AF919F918F917F91F2
:100EC0006F915F914F913F912F910F900FBE0F90B7
:100ED0001F901895CF92DF92EF92FF92CF93DF93FE
:100EE000CDB7DEB760970FB6F894DEBF0FBECDBFAB
:100EF0006B017C01CE01019620E1FC0111922A9543
:100F0000E9F725E030E03C832B830E942F06C701E0
:100F1000B6010E94A80C20E030E04AE754E40E94A9
:100F2000000C25E831EB45E85CE30E94000C0E94D0
:100F3000790C609331017093320180933301909367
:100F4000340180E090E0DC014091310150913201A8
:100F5000609133017091340184179507A607B70794
:100F600068F060960FB6F894DEBF0FBECDBFDF917C
:100F7000CF91FF90EF90DF90CF900895A89BFECF88
:100F8000A89A0196A11DB11DDFCFCF92DF92EF92FB
:100F9000FF92CF93DF93CDB7DEB760970FB6F8948B
:100FA000DEBF0FBECDBF6B017C0180E1E0E0F1E070
:100FB000DE01119601900D928A95E1F7CE0101961E
:100FC0000E942F06C701B6010E94A80C20E030E065
:100FD0004AE754E40E94000C25E831EB45E85CE365
:100FE0000E94000C0E94790C6093310170933201D1
:100FF000809333019093340160960FB6F894DEBF6E
:101000000FBECDBFDF91CF91FF90EF90DF90CF90DB
:101010000895CF92DF92EF92FF92CF93DF93CDB7F7
:10102000DEB760970FB6F894DEBF0FBECDBF6B0181
:101030007C01CE01019620E1FC0111922A95E9F78D
:1010400025E030E03C832B830E942F06C701B601C8
:101050000E94A80C20E034E244E759E40E94000C0E
:1010600025E831EB45E85CE30E94000C0E94790C16
:101070006093310170933201809333019093340176
:1010800080E090E0DC0140913101509132016091AB
:1010900033017091340184179507A607B70788F0CC
:1010A00090E080E00E942F0660960FB6F894DEBFB5
:1010B0000FBECDBFDF91CF91FF90EF90DF90CF902B
:1010C0000895A89BFECFA89A0196A11DB11DDBCF64
:1010D000CF92DF92EF92FF92CF93DF93CDB7DEB73F
:1010E00060970FB6F894DEBF0FBECDBF6B017C01D9
:1010F00080E1E0E0F1E0DE01119601900D928A9529
:10110000E1F7CE0101960E942F06C701B6010E94A9
:10111000A80C20E034E244E759E40E94000C25E8E2
:1011200031EB45E85CE30E94000C0E94790C60936F
:1011300031017093320180933301909334016096B2
:101140000FB6F894DEBF0FBECDBFDF91CF91FF90F9
:10115000EF90DF90CF90089525E331E0AC016AE095
:10116000FA01D90101900D926A95E1F7465F5F4F50
:10117000265F3F4F61E02D35360789F714BC15BC5B
:1011800024B5226024BD25B5226025BD25B521608A
:1011900025BD16BC2CE727BD18BC20916E00216030
:1011A00020936E00A89A2FB720682FBF9C01285D5E
:1011B0003F4FFC014681578160857185428353838F
:1011C000648375830A962817390799F70895109252
:1011D000840082EA8093800083E18093810080EC28
:1011E00080938200219A229A84EC99E09093870060
:1011F0008093860010928900109288008DE790E01D
:1012000090938B0080938A00089520E030E44CE1B5
:1012100055E40E94740D0E94720C709389006093D3
:101220008800089520E030E04AEF52E40E94740DF7
:1012300020E030E044E353E40E94000C20E030E082
:101240004AEF52E40E94940B0E94720C70938B0040
:1012500060938A0008951092C000E1ECF0E0808174
:1012600080618083808188608083E2ECF0E080810F
:10127000826080838081846080831092C50087E6CD
:101280008093C40008959091C00095FFFCCF809397
:10129000C60008958091C00087FFFCCF8091C600F2
:1012A0009091C00090689093C000089580E00E94E3
:1012B00029040E942B0945E060E082E00E94AE0113
:1012C0000E94E70862E083E00E94180463E083E084
:1012D0000E94180460E081E00E9418040E945400FB
:1012E0000E9454009091170180911501911112C034
:1012F000813049F490911901915090931901109205
:1013000015018093170180911601813049F71092E1
:101310001601E6CFE0911901813059F4E250E093D3
:1013200019011092150145E060E082E00E94F80189
:10133000D7CFF0E0EE0FFF1FEE5DFE4F8081918171
:101340000E9455046091190182E00E94C801E09159
:101350001901F0E0EE0FFF1FEE5DFE4F608171811D
:1013600090E080E00E94A80C20E030E040E251E4F0
:101370000E94000C0E9405096091190170E090E044
:1013800080E00E94AA0C209111013091120140913D
:101390001301509114010E94740D0E941209809152
:1013A0001601813031F064EF71E080E090E00E943E
:1013B0006A0780911601813031F064EF71E080E0BE
:1013C00090E00E946A071092160145E060E082E01A
:1013D0000E94F801809119018F5F80931901853077
:1013E00009F07ECF0E940C0620911A0130911B015A
:1013F00040911C0150911D0160911E0170911F01CF
:1014000080912001909121010E94E50C20E03FEFA6
:101410004FE757E40E94000C0E94050960911901F2
:1014200070E090E080E00E94AA0C209111013091C0
:10143000120140911301509114010E94740D0E94F9
:101440001209109217014CCFA1E21A2EAA1BBB1B46
:10145000FD010DC0AA1FBB1FEE1FFF1FA217B30780
:10146000E407F50720F0A21BB30BE40BF50B661F96
:10147000771F881F991F1A9469F76095709580955A
:1014800090959B01AC01BD01CF010895EE0FFF1FA8
:101490000590F491E02D0994DF93CF931F930F9360
:1014A0009A9DF02D219FF00D8B9DF00D8A9DE02DD2
:1014B000F10D039FF00D029FE00DF11D4E9DE00D1B
:1014C000F11D5E9DF00D4F9DF00D7F936F93BF92C8
:1014D000AF925F934F93D5010E94840B8B01AC01B7
:1014E000D7010E94840BEB01E80FF91FD6010E947F
:1014F0009B0A2F913F91D6010E94840BC60FD71FE4
:10150000E81FF91FAF91BF910E949B0A2F913F9155
:101510000E94840BC60FD71FE81FF91FD6010E9437
:10152000840BE60FF71F9801BE01CF010F911F91A9
:10153000CF91DF9108950E94840B460F571FC81F5B
:10154000D91F08F431960895689401C0E894F92FE2
:10155000F12B12F00C94D80AA0E0B0E0E2EBFAE034
:101560000C944A0B092E059422F40E94340B11238B
:1015700092F4F0E80F26FFEFE094F09400951095B8
:10158000B094C094D094A194BF0ACF0ADF0AEF0AA6
:10159000FF0A0F0B1F0B0E94E30A07FC0E94340B8B
:1015A000CDB7DEB7ECE00C94660B689401C0E8940C
:1015B0008F929F92CF93DF930E94E30ADF91CF91A6
:1015C0009F908F90089588249924F401E401B0E459
:1015D0009F93AA279A158B049C04ED05FE05CF0561
:1015E000D007A10798F4AD2FDC2FCF2FFE2FE92DC8
:1015F000982C892E982F872F762F652F542F432FC5
:10160000322F2227B85031F7BF9127C01B2EBF9130
:10161000BB27220F331F441F551F661F771F881FCC
:10162000991F881C991CEE1FFF1FCC1FDD1FAA1FCE
:10163000BB1F8A149B04EC05FD05CE05DF05A00742
:10164000B10748F08A189B08EC09FD09CE09DF09AB
:10165000A00BB10B21601A94E1F62EF49401AF01B6
:10166000BE01CD01000C0895609570958095909510
:1016700030954095509521953F4F4F4F5F4F6F4F9D
:101680007F4F8F4F9F4F08952F923F924F925F92BF
:101690006F927F928F929F92AF92BF92CF92DF9282
:1016A000EF92FF920F931F93CF93DF93CDB7DEB7E7
:1016B000CA1BDB0B0FB6F894DEBF0FBECDBF09947B
:1016C0002A88398848885F846E847D848C849B84D2
:1016D000AA84B984C884DF80EE80FD800C811B81E0
:1016E000AA81B981CE0FD11D0FB6F894DEBF0FBE0F
:1016F000CDBFED0108952A0D3B1D4C1D5D1D6E1DD6
:101700007F1D801F911F0895A29FB001B39FC0014C
:10171000A39F700D811D1124911DB29F700D811D1D
:101720001124911D08955058BB27AA270E94AB0B86
:101730000C943A0D0E942C0D38F00E94330D20F0CD
:1017400039F49F3F19F426F40C94290D0EF4E0951A
:10175000E7FB0C94230DE92F0E944B0D58F3BA17A9
:10176000620773078407950720F079F4A6F50C94B7
:101770006D0D0EF4E0950B2EBA2FA02D0B01B901C3
:1017800090010C01CA01A0011124FF27591B99F0F7
:10179000593F50F4503E68F11A16F040A22F232F03
:1017A000342F4427585FF3CF469537952795A79553
:1017B000F0405395C9F77EF41F16BA0B620B730BFA
:1017C000840BBAF09150A1F0FF0FBB1F661F771F6B
:1017D000881FC2F70EC0BA0F621F731F841F48F420
:1017E000879577956795B795F7959E3F08F0B0CFA9
:1017F0009395880F08F09927EE0F97958795089590
:101800000E94140C0C943A0D0E94330D58F00E9463
:101810002C0D40F029F45F3F29F00C94230D511159
:101820000C946E0D0C94290D0E944B0D68F39923B6
:10183000B1F3552391F3951B550BBB27AA276217CC
:101840007307840738F09F5F5F4F220F331F441FD9
:10185000AA1FA9F335D00E2E3AF0E0E832D091500D
:101860005040E695001CCAF72BD0FE2F29D0660FFA
:10187000771F881FBB1F261737074807AB07B0E83D
:1018800009F0BB0B802DBF01FF2793585F4F3AF043
:101890009E3F510578F00C94230D0C946E0D5F3F24
:1018A000E4F3983ED4F3869577956795B795F795C9
:1018B0009F5FC9F7880F911D9695879597F90895B1
:1018C000E1E0660F771F881FBB1F6217730784074D
:1018D000BA0720F0621B730B840BBA0BEE1F88F75C
:1018E000E09508950E94790C6894B1110C946E0DE6
:1018F00008950E94530D88F09F5798F0B92F9927AB
:10190000B751B0F0E1F0660F771F881F991F1AF0EA
:10191000BA95C9F714C0B13091F00E946D0DB1E0D5
:1019200008950C946D0D672F782F8827B85F39F0D4
:10193000B93FCCF3869577956795B395D9F73EF483
:1019400090958095709561957F4F8F4F9F4F08952B
:10195000E89409C097FB3EF4909580957095619549
:101960007F4F8F4F9F4F9923A9F0F92F96E9BB27FF
:101970009395F695879577956795B795F111F8CF7B
:10198000FAF4BB0F11F460FF1BC06F5F7F4F8F4FE6
:101990009F4F16C0882311F096E911C0772321F0DC
:1019A0009EE8872F762F05C0662371F096E8862F74
:1019B00070E060E02AF09A95660F771F881FDAF7CB
:1019C000880F9695879597F90895E894F92F96EBE7
:1019D000FF2381F0121613061406440B9395F69517
:1019E00087957795679557954040FF23B9F71BC0BA
:1019F00099270895882351F49850D2F7872B762F92
:101A0000652F542F432F322F20E0B1F31216130607
:101A10001406440B88233AF09A95440F551F661F0D
:101A2000771F881FCAF755234AF4440F551F11F436
:101A300060FF04C06F5F7F4F8F4F9F4F880F969559
:101A4000879597F9089597F99F6780E870E060E0BF
:101A500008959FEF80EC089500240A941616170647
:101A600018060906089500240A941216130614068F
:101A700005060895092E0394000C11F4882352F0F2
:101A8000BB0F40F4BF2B11F460FF04C06F5F7F4FAA
:101A90008F4F9F4F089557FD9058440F551F59F091
:101AA0005F3F71F04795880F97FB991F61F09F3F4B
:101AB00079F087950895121613061406551FF2CF74
:101AC0004695F1DF08C0161617061806991FF1CFC4
:101AD00086957105610508940895E894BB276627EB
:101AE0007727CB0197F908950E94870D0C943A0D42
:101AF0000E942C0D38F00E94330D20F0952311F038
:101B00000C94230D0C94290D11240C946E0D0E943D
:101B10004B0D70F3959FC1F3950F50E0551F629FD9
:101B2000F001729FBB27F00DB11D639FAA27F00D36
:101B3000B11DAA1F649F6627B00DA11D661F829F5D
:101B40002227B00DA11D621F739FB00DA11D621F42
:101B5000839FA00D611D221F749F3327A00D611D5F
:101B6000231F849F600D211D822F762F6A2F112441
:101B70009F5750409AF0F1F088234AF0EE0FFF1F74
:101B8000BB1F661F771F881F91505040A9F79E3FCB
:101B9000510580F00C94230D0C946E0D5F3FE4F31F
:101BA000983ED4F3869577956795B795F795E79521
:101BB0009F5FC1F7FE2B880F911D9695879597F92A
:061BC0000895F894FFCF28
:101BC6000000050000000100000000000000000009
:00000001FF
