:100000000C9434000C9451000C9451000C94510049
:100010000C9451000C9451000C9451000C9451001C
:100020000C9451000C9451000C9451000C9451000C
:100030000C9451000C9451000C9451000C945100FC
:100040000C9462050C9451000C9451000C945100D6
:100050000C9451000C943F020C9451000C945100EC
:100060000C9451000C94510011241FBECFEFD8E026
:10007000DEBFCDBF11E0A0E0B1E0E0E7F5E102C0F6
:1000800005900D92A031B107D9F721E0A0E1B1E0D0
:1000900001C01D92AD34B207E1F70E94BE070C9477
:1000A000B60A0C940000089580E680937C00EAE78D
:1000B000F0E08081886C808308958430C0F58230C0
:1000C000B1F0833031F1813091F5663080F581E017
:1000D00090E001C0880F6A95EAF794B1413051056C
:1000E00019F4892B84B9089580958923FBCF673053
:1000F000F0F481E090E001C0880F6A95EAF797B1CB
:100100004130510519F4892B87B9089580958923C9
:10011000FBCF683060F481E090E001C0880F6A9501
:10012000EAF79AB14130510519F4892B8AB908953B
:1001300080958923FBCF8430A8F58230A9F08330E5
:1001400021F1813079F5663068F581E090E001C0F9
:10015000880F6A95EAF795B1413019F4892B85B972
:10016000089580958923FBCF6730E0F481E090E02B
:1001700001C0880F6A95EAF798B1413019F4892BCC
:1001800088B9089580958923FBCF683058F481E0C1
:1001900090E001C0880F6A95EAF79BB1413019F4ED
:1001A000892B8BB9089580958923FBCF8430C8F4BF
:1001B000823079F0833089F0813099F4663088F4A8
:1001C00085B121E030E001C0220F6A95EAF7822371
:1001D0000895673030F488B1F4CF683010F48BB1F3
:1001E000F0CF80E00895843008F04FC08230F9F0FD
:1001F0008330B1F1813009F048C0663008F045C065
:1002000025B181E090E002C0880F991F6A95E2F75E
:10021000022E000C330B2823392395B121303105F0
:1002200019F0892B85B9089580958923FBCF673014
:1002300060F528B181E090E002C0880F991F6A95AF
:10024000E2F7022E000C330B2823392398B121301A
:10025000310519F0892B88B9089580958923FBCF42
:10026000683098F42BB181E090E002C0880F991FAC
:100270006A95E2F7022E000C330B282339239BB139
:100280002130310519F0892B8BB908958095892388
:10029000FBCF843058F4823031F0833031F081303C
:1002A00029F464B9089567B908956AB90895843046
:1002B00058F4823031F0833031F0813029F465B95F
:1002C000089568B908956BB90895843060F4823058
:1002D00031F0833031F0813031F483B1089586B14B
:1002E000089589B1089580E008958430C0F4823083
:1002F00091F0833091F0813091F424B181E090E06D
:1003000002C0880F991F6A95E2F7022E000C330B8A
:1003100082239323089527B1F1CF2AB1EFCF90E044
:1003200080E00895CF93DF93C82FD62F41E050E0AF
:100330000E945D0040E06D2F8C2FDF91CF910C94D7
:100340009B001F93CF93DF93182FC62FD42FD60F68
:10035000CD1304C0DF91CF911F91089541E050E08B
:100360006C2F812F0E945D0040E06C2F812F0E9436
:100370009B00CF5FEDCFCF93DF93C82FD62F0E9486
:100380007501892B69F06D2F8C2F0E94D60081306A
:1003900039F041E06D2F8C2FDF91CF910C949B00B1
:1003A000DF91CF910895CF93DF93C82FD62F0E946E
:1003B0007501892B69F06D2F8C2F0E94D600882340
:1003C00039F040E06D2F8C2FDF91CF910C949B0082
:1003D000DF91CF910895CF93DF93C82FD62F0E943E
:1003E0007501892B31F06D2F8C2FDF91CF910C94FB
:1003F000F300DF91CF910895EF92FF920F931F9337
:10040000CF93DF93C82FD62FE42E0E947501892B3E
:1004100059F161E06D0F8C2F0E947501892B21F13C
:1004200062E06D0F8C2F0E947501892BE9F063E06B
:100430006D0F8C2F0E947501892BB1F010E000E048
:10044000F12C6D2F600FC701002E02C09595879586
:100450000A94E2F780FF0FC08C2F0E94BB010F5F50
:100460001F4F0430110569F7DF91CF911F910F9154
:10047000FF90EF9008958C2F0E94D301F0CF1F9230
:100480000F920FB60F9211242F933F938F939F9348
:10049000EF93FF93209178003091790080911A01B9
:1004A00090911B018227932790931B0180931A013F
:1004B000EAE7F0E0808180648083FF91EF919F9173
:1004C0008F913F912F910F900FBE0F901F90189515
:1004D000CF93DF93C82FD62F50E040E00E945D00FD
:1004E00041E06D2F8C2FDF91CF910C949B000C94E9
:1004F000D60080931C0141E050E064E083E00E945C
:100500005D0041E050E065E083E00E945D0041E075
:1005100050E066E083E00E945D0041E050E067E06B
:1005200083E00E945D0041E050E060E081E00E94D5
:100530005D0041E050E063E081E00E945D0041E049
:1005400050E064E081E00C945D0020911C012111D9
:10055000D9C08A30910508F0AEC1FC01EE54FD4FC0
:100560000C94A008BC02DF02FA021A03300346030F
:100570005703720374037B0341E064E083E00E944D
:100580009B0041E065E083E00E949B0041E066E063
:1005900083E00E949B0041E067E083E00E949B00B3
:1005A00041E060E081E00E949B0041E063E081E087
:1005B0000E949B0040E064E081E00C949B0040E0DE
:1005C00064E083E00E949B0041E065E083E00E94DC
:1005D0009B0041E066E083E00E949B0040E067E012
:1005E00083E00E949B0040E060E081E00E949B006D
:1005F00040E0DCCF41E064E083E00E949B0041E00A
:1006000065E083E00E949B0040E066E083E00E949A
:100610009B0041E067E083E00E949B0041E060E0D6
:1006200081E00E949B0040E063E081E00E949B002B
:1006300041E0C1CF41E064E083E00E949B0041E0E3
:1006400065E083E00E949B0041E066E083E00E9459
:100650009B0041E067E083E00E949B0040E0DFCF29
:1006600040E064E083E00E949B0041E065E083E0BD
:100670000E949B0041E066E083E00E949B0040E016
:1006800067E083E00E949B0040E026C041E064E018
:1006900083E00E949B0040E065E083E00E949B00B5
:1006A00041E066E083E00E949B0041E0E9CF41E049
:1006B00064E083E00E949B0040E065E083E00E94EC
:1006C0009B0041E066E083E00E949B0041E067E020
:1006D00083E00E949B0041E060E081E00E949B007B
:1006E00041E0A2CF41E06CCF41E064E083E00E94B2
:1006F0009B0041E0E2CF41E064E083E00E949B0088
:1007000041E0CACF213009F0D6C08A30910508F007
:10071000D2C0FC01E257FC4F0C94A0089803B80328
:10072000D303F30309041F0430044B044D045404A1
:100730004EEF64E083E00E949B004EEF65E083E0B3
:100740000E949B004EEF66E083E00E949B004EEF0C
:1007500067E083E00E949B004EEF60E081E00E9432
:100760009B004EEF63E081E00E949B004FEF23CFA0
:100770004FEF64E083E00E949B004EEF65E083E072
:100780000E949B004EEF66E083E00E949B004FEFCB
:1007900067E083E00E949B004FEF60E081E00E94F1
:1007A0009B004FEFDFCF4EEF64E083E00E949B00A1
:1007B0004EEF65E083E00E949B004FEF66E083E030
:1007C0000E949B004EEF67E083E00E949B004EEF8B
:1007D00060E081E00E949B004FEF63E081E00E94B7
:1007E0009B004EEFE8CE4EEF64E083E00E949B005A
:1007F0004EEF65E083E00E949B004EEF66E083E0F1
:100800000E949B004EEF67E083E00E949B004FEF49
:10081000DFCF4FEF64E083E00E949B004EEF65E086
:1008200083E00E949B004EEF66E083E00E949B0005
:100830004FEF67E083E00E949B004FEF26C04EEF32
:1008400064E083E00E949B004FEF65E083E00E943C
:100850009B004EEF66E083E00E949B004EEFE9CFE5
:100860004EEF64E083E00E949B004FEF65E083E081
:100870000E949B004EEF66E083E00E949B004EEFDB
:1008800067E083E00E949B004EEF60E081E00E9401
:100890009B004EEFA2CF4EEF6CCF4EEF64E083E0B3
:1008A0000E949B004EEFE2CF4EEF64E083E00E9497
:1008B0009B004EEFCACF089540E064E083E00E94C1
:1008C0009B0040E065E083E00E949B0040E066E022
:1008D00083E00E949B0040E067E083E00E949B0071
:1008E00040E060E081E00E949B0040E063E081E046
:1008F0000E949B0040E064E081E00C949B00FC01BE
:10090000808191818130910509F446C0D8F182300F
:10091000910509F447C0039709F44CC08281938183
:100920008230910509F470C008F057C0009709F4AF
:100930005EC0019709F465C084819581813091057D
:1009400009F488C008F472C08230910509F482C0AD
:10095000039709F492C086819781009709F49AC0A1
:10096000019709F4A1C0808586BD828587BD8285F7
:1009700088BD10921D0110921E0110921F0110924D
:100980002001089584B58E7F84BD84B58D7F84BD9C
:1009900085B5877F85BDC2CF84B58E7F84BD84B584
:1009A0008260F5CF84859585892B09F0B7CF84B512
:1009B0008160EACF84859585009761F0019709F001
:1009C000ADCF84B5816084BD84B5826084BD85B5BA
:1009D0008860E0CF84B58160E1CF84309105E9F093
:1009E000C8F0059709F0A8CF85B5816018C085B516
:1009F0008E7F85BD85B58D7F85BD85B58B7F85BD9A
:100A00009BCF85B58160F5CF85B58E7F85BD85B5DA
:100A10008260F2CF85B58160F9CF85B58E7F85BDC7
:100A200085B58D7F85BD85B58460E9CF8685978541
:100A3000009749F0019709F08ECF84B58F7D84BD72
:100A400084B58F7E05C084B58F7784BD84B58F7BD8
:100A500084BD81CF86859785009749F0019709F07D
:100A60007ACF84B58F7D84BD84B58061F1CF84B5A4
:100A70008F7784BD84B58064EBCF8685978500979A
:100A800031F0019709F067CF84B58062ECCF84B56F
:100A90008068EFCF80916E008E7F80936E00A89A61
:100AA0008FB78F778FBF5FCF80916E00816080930B
:100AB0006E00A89A8FB78068F5CF089516BC17BC52
:100AC00018BC08951F920F920FB60F9211242F9306
:100AD0003F934F935F936F937F938F939F93AF93C6
:100AE000BF93CF93DF93EF93FF9380911D0190917C
:100AF0001E01A0911F01B09120010196A11DB11D01
:100B000080931D0190931E01A0931F01B0932001BB
:100B1000A89AC5E2D1E060911D0170911E018091FB
:100B20001F01909120012E813F81488559850E94A7
:100B30007E08672B682B692B29F4E881F9813097AF
:100B400009F009952A9681E0CD34D80721F7FF9165
:100B5000EF91DF91CF91BF91AF919F918F917F9155
:100B60006F915F914F913F912F910F900FBE0F901A
:100B70001F901895CF92DF92EF92FF92CF93DF9361
:100B8000CDB7DEB760970FB6F894DEBF0FBECDBF0E
:100B90006B017C01CE01019620E1FC0111922A95A6
:100BA000E9F725E030E03C832B830E947F04C701F6
:100BB000B6010E94BB0920E030E04AE754E40E94FD
:100BC000130925E831EB45E85CE30E9413090E9414
:100BD0008C096093210170932201809323019093EB
:100BE000240180E090E0DC0140912101509122013C
:100BF000609123017091240184179507A607B70718
:100C000068F060960FB6F894DEBF0FBECDBFDF91DF
:100C1000CF91FF90EF90DF90CF900895A89BFECFEB
:100C2000A89A0196A11DB11DDFCFCF92DF92EF925E
:100C3000FF92CF93DF93CDB7DEB760970FB6F894EE
:100C4000DEBF0FBECDBF6B017C0180E1E0E0F1E0D3
:100C5000DE01119601900D928A95E1F7CE01019681
:100C60000E947F04C701B6010E94BB0920E030E06A
:100C70004AE754E40E94130925E831EB45E85CE3B8
:100C80000E9413090E948C09609321017093220134
:100C9000809323019093240160960FB6F894DEBFF1
:100CA0000FBECDBFDF91CF91FF90EF90DF90CF903F
:100CB0000895CF92DF92EF92FF92CF93DF93CDB75B
:100CC000DEB760970FB6F894DEBF0FBECDBF6B01E5
:100CD0007C01CE01019620E1FC0111922A95E9F7F1
:100CE00025E030E03C832B830E947F04C701B601DE
:100CF0000E94BB0920E034E244E759E40E94130952
:100D000025E831EB45E85CE30E9413090E948C0959
:100D10006093210170932201809323019093240119
:100D200080E090E0DC01409121015091220160912E
:100D300023017091240184179507A607B70788F04F
:100D400090E080E00E947F0460960FB6F894DEBFCA
:100D50000FBECDBFDF91CF91FF90EF90DF90CF908E
:100D60000895A89BFECFA89A0196A11DB11DDBCFC7
:100D7000CF92DF92EF92FF92CF93DF93CDB7DEB7A2
:100D800060970FB6F894DEBF0FBECDBF6B017C013C
:100D900080E1E0E0F1E0DE01119601900D928A958C
:100DA000E1F7CE0101960E947F04C701B6010E94BF
:100DB000BB0920E034E244E759E40E94130925E826
:100DC00031EB45E85CE30E9413090E948C096093B3
:100DD0002101709322018093230190932401609656
:100DE0000FB6F894DEBF0FBECDBFDF91CF91FF905D
:100DF000EF90DF90CF90089525E231E0AC016AE0FA
:100E0000FA01D90101900D926A95E1F7465F5F4FB3
:100E1000265F3F4F61E02D34360789F714BC15BCBF
:100E200024B5226024BD25B5226025BD25B52160ED
:100E300025BD16BC2CE727BD18BC20916E00216093
:100E400020936E00A89A2FB720682FBF9C01285DC1
:100E50003F4FFC01468157816085718542835383F2
:100E6000648375830A962817390799F708951092B5
:100E700085001092840082EA8093800083E1809351
:100E8000810080EC80938200219A229A84EC99E080
:100E900090938700809386001092890010928800BA
:100EA0008DE790E090938B0080938A000895E1E8AD
:100EB000F0E0808182608083EFE6F0E080818160F5
:100EC00080831092850010928400089520E030E421
:100ED0004CE155E40E94490A0E94850970938900FB
:100EE00060938800089520E030E04AEF52E40E94C9
:100EF000490A20E030E044E353E40E94130920E073
:100F000030E04AEF52E40E94A7080E9485097093DE
:100F10008B0060938A0008951092C000E1ECF0E02D
:100F2000808180618083808188608083E2ECF0E052
:100F30008081826080838081846080831092C5007C
:100F400087E68093C40008959091C00095FFFCCF80
:100F50008093C60008958091C00087FFFCCF8091E8
:100F6000C6009091C00090689093C0000895E0EC96
:100F7000F0E080818081808180E00895F8940E9473
:100F8000570780E00E9479020E94540061E082E0ED
:100F90000E94920162E082E00E94920163E082E09E
:100FA0000E94920178940E948C070AE010E00E944F
:100FB000AB078736E1F761E082E00E94BB01209138
:100FC00084003091850080911A0190911B01820F5D
:100FD000931F90931B0180931A0130E020E08091D1
:100FE00084009091850040911A0150911B01842743
:100FF0009527B8010E946A08F901EE0FFF1FE05F14
:10100000FE4F918380832F5F3F4F2530310539F7A5
:1010100068EE73E080E090E00E94BA0562E082E052
:101020000E94BB0183E70E94A40780911801909160
:1010300019010E94A40780911601909117010E9446
:10104000A40780911401909115010E94A40780913A
:101050001201909113010E94A407809110019091B8
:1010600011010E94A40768EE73E080E090E00E9406
:10107000BA0563E082E00E94BB0168EE73E080E0A5
:1010800090E00E94BA0561E082E00E94D30162E034
:1010900082E00E94D30163E082E00E94D3010E94BB
:1010A000B707882309F483CFCAE061E082E00E9499
:1010B000EB0161E082E00E94EB0161E082E00E94CE
:1010C000EB0164EF71E080E090E00E94BA05C1504E
:1010D00061F76DCFAA1BBB1B51E107C0AA1FBB1F45
:1010E000A617B70710F0A61BB70B881F991F5A95B4
:1010F000A9F780959095BC01CD010895A1E21A2E23
:10110000AA1BBB1BFD010DC0AA1FBB1FEE1FFF1FAB
:10111000A217B307E407F50720F0A21BB30BE40BFB
:10112000F50B661F771F881F991F1A9469F7609542
:101130007095809590959B01AC01BD01CF010895FC
:10114000EE0FFF1F0590F491E02D09945058BB2736
:10115000AA270E94BE080C940F0A0E94010A38F0C8
:101160000E94080A20F039F49F3F19F426F40C94E9
:10117000FE090EF4E095E7FB0C94F809E92F0E94B4
:10118000200A58F3BA17620773078407950720F0FF
:1011900079F4A6F50C94420A0EF4E0950B2EBA2FC2
:1011A000A02D0B01B90190010C01CA01A00111246D
:1011B000FF27591B99F0593F50F4503E68F11A1619
:1011C000F040A22F232F342F4427585FF3CF4695AA
:1011D00037952795A795F0405395C9F77EF41F16CC
:1011E000BA0B620B730B840BBAF09150A1F0FF0F96
:1011F000BB1F661F771F881FC2F70EC0BA0F621F82
:10120000731F841F48F4879577956795B795F79571
:101210009E3F08F0B0CF9395880F08F09927EE0F06
:101220009795879508950E9427090C940F0A0E94AC
:10123000080A58F00E94010A40F029F45F3F29F0A3
:101240000C94F80951110C94430A0C94FE090E9465
:10125000200A68F39923B1F3552391F3951B550B9D
:10126000BB27AA2762177307840738F09F5F5F4F79
:10127000220F331F441FAA1FA9F335D00E2E3AF0B8
:10128000E0E832D091505040E695001CCAF72BD0D0
:10129000FE2F29D0660F771F881FBB1F2617370721
:1012A0004807AB07B0E809F0BB0B802DBF01FF2753
:1012B00093585F4F3AF09E3F510578F00C94F8092F
:1012C0000C94430A5F3FE4F3983ED4F386957795F8
:1012D0006795B795F7959F5FC9F7880F911D96950C
:1012E000879597F90895E1E0660F771F881FBB1F68
:1012F000621773078407BA0720F0621B730B840B15
:10130000BA0BEE1F88F7E09508950E948C09689447
:10131000B1110C94430A08950E94280A88F09F573F
:1013200098F0B92F9927B751B0F0E1F0660F771F09
:10133000881F991F1AF0BA95C9F714C0B13091F0FF
:101340000E94420AB1E008950C94420A672F782F58
:101350008827B85F39F0B93FCCF3869577956795C4
:10136000B395D9F73EF490958095709561957F4F30
:101370008F4F9F4F0895E89409C097FB3EF49095D6
:101380008095709561957F4F8F4F9F4F9923A9F05E
:10139000F92F96E9BB279395F695879577956795ED
:1013A000B795F111F8CFFAF4BB0F11F460FF1BC031
:1013B0006F5F7F4F8F4F9F4F16C0882311F096E9C4
:1013C00011C0772321F09EE8872F762F05C0662372
:1013D00071F096E8862F70E060E02AF09A95660F2B
:1013E000771F881FDAF7880F9695879597F90895E4
:1013F00097F99F6780E870E060E008959FEF80ECC8
:10140000089500240A94161617061806090608956A
:1014100000240A9412161306140605060895092ED0
:101420000394000C11F4882352F0BB0F40F4BF2B3F
:1014300011F460FF04C06F5F7F4F8F4F9F4F08957F
:1014400057FD9058440F551F59F05F3F71F0479575
:10145000880F97FB991F61F09F3F79F0879508955A
:10146000121613061406551FF2CF4695F1DF08C079
:10147000161617061806991FF1CF86957105610596
:1014800008940895E894BB2766277727CB0197F93E
:1014900008950E945C0A0C940F0A0E94010A38F019
:1014A0000E94080A20F0952311F00C94F8090C947E
:1014B000FE0911240C94430A0E94200A70F3959FA0
:1014C000C1F3950F50E0551F629FF001729FBB273B
:1014D000F00DB11D639FAA27F00DB11DAA1F649FD7
:1014E0006627B00DA11D661F829F2227B00DA11D8A
:1014F000621F739FB00DA11D621F839FA00D611D10
:10150000221F749F3327A00D611D231F849F600D30
:10151000211D822F762F6A2F11249F5750409AF059
:10152000F1F088234AF0EE0FFF1FBB1F661F771FE5
:10153000881F91505040A9F79E3F510580F00C94B0
:10154000F8090C94430A5F3FE4F3983ED4F3869580
:1015500077956795B795F795E7959F5FC1F7FE2B50
:10156000880F911D9695879597F90895F894FFCF68
:101570000000050000000100000000000000000065
:00000001FF
